S00F000070726F6A65746F2E7372656312
S11300000C942C010C9449010C9449010C94490161
S11300100C9449010C9449010C9449010C94490134
S11300200C9449010C9449010C9449010C94490124
S11300300C9449010C9449010C9449010C94490114
S11300400C9449010C9449010C9449010C94490104
S11300500C9449010C9449010C9449010C944901F4
S11300600C9449010C944901313233003435360083
S11300703738390045304600000000000000005FBA
S113008000000007000700147F147F14242A7F2A2D
S113009012231308646236495522500005030000F8
S11300A0001C2241000041221C0014083E081408D0
S11300B0083E0808005030000008080808080060DE
S11300C060000020100804023E5149453E00427F72
S11300D0400042615149462141454B311814127F79
S11300E01027454545393C4A494930017109050302
S11300F03649494936064949291E0036360000006A
S1130100563600000814224100141414141400413B
S11301102214080201510906324979413E7E111127
S1130120117E7F494949363E414141227F41412266
S11301301C7F494949417F090909013E4149497ADE
S11301407F0808087F00417F41002040413F017F34
S1130150081422417F404040407F020C027F7F040C
S113016008107F3E4141413E7F090909063E415145
S1130170215E7F09192946464949493101017F0118
S1130180013F4040403F1F2040201F3F4038403F38
S11301906314081463070870080761514945430054
S11301A07F41410002040810200041417F00040205
S11301B00102044040404040000102040020545425
S11301C054787F48444438384444442038444448AC
S11301D07F3854545418087E0901020C5252523E7E
S11301E07F0804047800447D40002040443D007FA3
S11301F01028440000417F40007C041804787C08E7
S113020004047838444444387C141414080814143E
S1130210187C7C080404084854545420043F444087
S1130220203C4040207C1C2040201C3C4030403C72
S113023044281028440C5050503C4464544C44000E
S11302400836410000007F00000041360800100815
S1130250081008000000000011241FBECFEFD8E0F2
S1130260DEBFCDBF11E0A0E0B1E0ECEBF8E002C0EE
S113027005900D92A832B107D9F723E0A8E2B1E0C6
S113028001C01D92A232B207E1F70E9486020C94CB
S11302905C040C94000087B161E0862787B987B1BC
S11302A052E0852787B987B144E0842787B987B1AD
S11302B038E0832787B987B120E1822787B987B1DE
S11302C090E2892787B977B180E4782777B978B144
S11302D0672768B968B1562758B958B1452748B94E
S11302E048B1342738B938B1232728B928B192271F
S11302F098B998B1892788B90895389839983A985F
S11303003B983C9A3D9A3E9A409A419A429A439A23
S11303104498459846980895CF93DF9300D000D031
S11303201F92CDB7DEB719821B821A8280EF8D83AC
S113033086B19D818170892B8D8386B19D81827068
S1130340892B8D8386B19D818470892B8D8386B1A1
S11303509D818870892B8D838D8180958A838A8184
S1130360882309F44EC00E944B018FE08C8386B130
S11303709C818071892B8C8386B19C818072892BAE
S11303808C8386B19C818074892B8C838C8180685A
S11303908C838C838C8180958B830E944B018A8112
S11303A080FF02C01A8211C08A8181FF03C081E0EC
S11303B08A830BC08A8182FF03C082E08A8305C0DE
S11303C08A8183FF02C083E08A838B8184FF02C019
S11303D01B820BC08B8185FF03C081E08B8305C02A
S11303E08B8186FF02C082E08B838A81EB81F0E0FF
S11303F094E0899FE00DF11D1124E859FF4FE49129
S1130400E98389810F900F900F900F900F90DF91E7
S1130410CF910895CF93DF931F92CDB7DEB780EFCE
S1130420898386B199818170892B898386B1998169
S11304308270892B898386B199818470892B898301
S113044086B199818870892B8983998181E09F3F46
S113045009F480E081950F90DF91CF9108950E9477
S11304600A028111FCCF0895FC0140815181FB01F6
S1130470208131814217530791F4DC0112963296A0
S113048020E030E02F5F3F4F4D915D91819191913C
S11304904817590731F426303105A1F702C020E08E
S11304A030E081E090E02630310514F480E090E003
S11304B00895FC013C9612921292E817F907D9F7B5
S11304C00895EF92FF921F93CF93DF9316161706AA
S11304D0ACF4EC01660F771F7C01E60EF71E10E00A
S11304E068E2812F0E9431048881229661E0805D58
S11304F00E9470031A5FCE15DF0591F70E9436043F
S1130500DF91CF911F91FF90EF900895CF93DF93E8
S1130510CDB7DEB72C970FB6F894DEBF0FBECDBFB4
S1130520FE0131968CE0DF011D928A95E9F78FEF89
S113053084B978940E947D010E940403CE0101963F
S11305406C01B82E0D2DE12CF12C0E948C01182F7A
S11305500E942F02112391F0F701EE0FFF1FEC0D03
S1130560FD1D812F90E0C097918380839FEFE91A4E
S1130570F90AB7018B2D902F0E946102A6E0EA16BA
S1130580F10419F760E080E00E94310460E071E05A
S11305908B2D902F0E943402019731F461E08CE09E
S11305A091E00E941E0405C061E089E191E00E948F
S11305B01E040E94360460E070E08B2D902F0E9490
S11305C05902C1CF2998662311F02B9A15C02B9894
S11305D013C0AC01022E02C0559547950A94E2F768
S11305E040FF02C02C9A01C02C982D9A2D982150BE
S11305F0310978F7299A089527E030E090E0E9CFAF
S113060060E00E94E2020895CF93DF93219A229A38
S1130610239A249A259A2A9A299A83EC99E0019795
S1130620F1F700C000002A988BE594E40197F1F7F4
S113063000C000002A9A299881E20E94000383E105
S11306400E94000386E00E94000382EC0E940003E3
S113065080E20E94000389E00E94000380E80E9477
S1130660000380E40E940003C8EFD1E061E080E071
S11306700E94E2022197D1F788E00E9400038CE0F7
S11306800E940003DF91CF910895262F2695269589
S1130690269590E034E5239F800D911D1124442379
S11306A079F0FC01E85DFE4F677081E090E002C0E4
S11306B0880F991F6A95E2F79081892B80830895AA
S11306C0FC01E85DFE4F677081E090E002C0880F96
S11306D0991F6A95E2F78095908189238083089514
S11306E05F926F927F928F929F92AF92BF92CF92BE
S11306F0DF92EF92FF920F931F93CF93DF93562EC7
S1130700262F30E04901880C991C880C991C820E14
S1130710931E181419040CF05DC08901000F111FF9
S1130720000F111F000F111F021B130B612CA82EA9
S1130730B12CC50180975C01AA0CBB1CAA0CBB1C84
S1130740A80EB91E0F2EF1E2CF2EF3E0DF2EF02D0E
S11307500F2EF0E2EF2EF3E0FF2EF02D2DC0FE0160
S1130760249130E0872D652D0E94500402C03595F8
S113077027958A95E2F720FF0AC0F6016081670D8C
S1130780F701808141E0860D0E94450309C0F6010E
S11307906081670DF701808140E0860D0E9445036A
S11307A07394872D90E080179107CCF26394862D83
S11307B090E08815990574F410161106BCF7862D7F
S11307C0652D0E945004E501C80FD11DC858DF4FA4
S11307D0712CC5CF8091200391E0980F852D880F4F
S11307E0880F850D890F843518F4809320030EC07B
S11307F010922003E1E2F3E0808191E0980F852DCF
S1130800880F880F880F8519890F808380912103B1
S1130810803320F01092200310922103DF91CF91B6
S11308201F910F91FF90EF90DF90CF90BF90AF900A
S11308309F908F907F906F905F9008951F93CF93B8
S1130840DF93EC018881882341F0162F2196612FD4
S11308500E94700389918111FACFDF91CF911F918A
S11308600895809320036093210308950F931F93A9
S1130870CF93DF9380E80E94000380E40E9400038A
S1130880C8E2D1E000E213E061E089910E94E20253
S1130890C017D107C9F7DF91CF911F910F91089528
S11308A0991B79E004C0991F961708F0961B881FBE
S10F08B07A95C9F780950895F894FFCF5D
S11308BC010002000300040005000600706173735C
S11308CC20636F7272657461007061737320696E5A
S10B08DC636F72726574610020
S9030000FC
